:020000040800F2
:100000000000012069200008B1050008B3050008C0
:10001000B5050008B7050008B90500080000000094
:10002000000000000000000000000000BB05000808
:10003000BD05000800000000BF050008C10500085C
:10004000B1200008B1200008B1200008B12000084C
:10005000B1200008B1200008B1200008B12000083C
:10006000B1200008B1200008B1200008B12000082C
:10007000B1200008B1200008C9050008D905000812
:10008000B1200008B1200008B1200008B12000080C
:10009000B1200008B1200008B1200008B1200008FC
:1000A000B1200008B1200008B1200008B1200008EC
:1000B000B1200008B1200008B1200008B1200008DC
:1000C000B1200008B1200008B1200008B1200008CC
:1000D000B1200008E9050008B1200008B12000089F
:1000E000B1200008B1200008B1200008B1200008AC
:1000F000B1200008B1200008B1200008B12000089C
:10010000B1200008B1200008B1200008B12000088B
:10011000B1200008B1200008B1200008B12000087B
:10012000B1200008B1200008B1200008B12000086B
:1001300000000000000000000000000000000000BF
:1001400000000000000000000000000000000000AF
:10015000000000000000000000000000000000009F
:10016000000000000000000000000000000000008F
:10017000000000000000000000000000000000007F
:10018000000000000000000000000000000000006F
:10019000000000000000000000000000000000005F
:1001A000000000000000000000000000000000004F
:1001B000000000000000000000000000000000003F
:1001C000000000000000000000000000000000002F
:1001D000000000000000000000000000000000001F
:0401E0005FF8E0F1F3
:1001E400844641EA000313F0030349D1403A23D380
:1001F4000B6803604B6843608B688360CB68C360A3
:100204000B6903614B6943618B698361CB69C3618A
:100214000B6A03624B6A43628B6A8362CB6AC36272
:100224000B6B03634B6B43638B6B8363CB6BC3635A
:1002340040304031403ADBD230320BD30B6803609C
:100244004B6843608B688360CB68C36010301031A7
:10025400103AF3D20C3205D351F8043B40F8043B76
:10026400043AF9D2043208D0D2071CBF11F8013B7A
:1002740000F8013B01D30B8803806046704700BF40
:10028400082A13D38B07B1D010F00303AED0C3F107
:100294000403D21ADB071CBF11F8013B00F8013B31
:1002A400A4D331F8023B20F8023B9FE7043AD9D3A8
:1002B400013A11F8013B00F8013BF9D20B780370C5
:1002C4004B7843708B788370604670470348044BC7
:1002D400834202D0034B03B11847704748080020FB
:1002E40048080020000000000548064B1B1AD90FDF
:1002F40001EBA301491002D0034B03B11847704727
:1003040048080020480800200000000010B5064CF2
:10031400237843B9FFF7DAFF044B13B10448AFF372
:1003240000800123237010BD480800200000000055
:100334004039000808B5054B1BB105490548AFF322
:100344000080BDE80840FFF7CFBF00BF00000000F9
:100354004C0800204039000800B583B00E4B5A69A0
:1003640042F001025A615B6903F001030193019BAE
:10037400002211460E2000F0C7FA0E2000F0FCFA0D
:10038400002211460F2000F0BFFA0F2000F0F4FA0B
:1003940003B05DF804FB00BF001002402DE9F043F8
:1003A40089B000240494059406940794254B9A6913
:1003B40042F040029A619A6902F040020092009A67
:1003C4009A6942F010029A619A6902F0100201924D
:1003D400019A9A6942F004029A619A6902F004024D
:1003E4000292029A9A6942F008029A619B6903F0A8
:1003F40008030393039BDFF8509001222021484611
:1004040000F0E4FE114D01222021284600F0DEFE1A
:100414004FF02008CDF81080012705970694032695
:10042400079604A9484600F0B1FDCDF81080059761
:100434000694079604A9284600F0A8FD09B0BDE873
:10044400F08300BF0010024000180140000C01407E
:1004540072B6FEE700B591B02822002106A801F08B
:1004640051FE002301930293039304930593012205
:1004740006924FF4803307930A9202220D920E9350
:100484004FF4E0130F9306A800F0BCFE80B90F23CD
:10049400019302210291002303934FF4806204929A
:1004A400059301A801F0EEF820B911B05DF804FB42
:1004B400FFF7CEFFFFF7CCFF2DE9F04100F0DAF9AA
:1004C400FFF7C8FFFFF76AFFFFF746FF00F0EEF8FB
:1004D4001F4C4FF47A7334221E49204601F0ADFAC2
:1004E4002268D36843F01003D36064221A4920467B
:1004F40001F09CFD4FF4FA7000F0E0F9174B1B7803
:10050400012BF7D14FF00008144B83F80080144CF2
:1005140023685A68C2F16402D2B2124F3A700E4E86
:100524000B4D3146284601F0F5FA87F80080226821
:10053400136823F00103136064223146284601F056
:1005440075FD2268136843F001031360D2E700BF0E
:100554005C0900205839000868080020CC080020F5
:10056400D40800206408002082B00E4B9A6942F03F
:1005740001029A619A6902F001020092009ADA6912
:1005840042F08052DA61DB6903F080530193019BEE
:10059400054A536823F0E06343F00073536002B0EC
:1005A400704700BF0010024000000140FEE7FEE774
:1005B400FEE7FEE7FEE770477047704708B500F0B6
:1005C4006BF908BD08B5024800F06AFB08BD00BF1E
:1005D4001809002008B5024800F062FB08BD00BFFE
:1005E400D408002010B582B00A4C204601F0A4FBC8
:1005F40023681A6812F0100F01D102B010BD002256
:1006040001921A6801925B680193019B204600F0F5
:10061400FFF8F2E75C09002070B50C461646002589
:1006240006E0AFF30080214601F8010B01350C46CA
:10063400B542F6DB304670BD70B50C461646002553
:1006440004E014F8010B00F0C3F80135B542F8DBFF
:10065400304670BD08B503460B4A126842B10A4AD7
:10066400106803446A46934206D8074A136008BDDB
:10067400054A06491160F2E701F01AFD0C230360F4
:100684004FF0FF30F3E700BFD0080020E00900205E
:100694004FF0FF3070474FF400534B600020704719
:1006A40001207047002070477047000008B50A48D1
:1006B4000A4B03604FF4E133436000238360C3605B
:1006C40003610C2242618361C36101F087F900B9BF
:1006D40008BDFFF7BDFEFBE75C09002000380140C0
:1006E40070B586B0002302930393049305930268C4
:1006F400314B9A4201D006B070BD044603F558430D
:100704009A6942F480429A619A6902F480420092A2
:10071400009A9A6942F004029A619B6903F0040307
:100724000193019B4FF40073029302230393032369
:100734000593224E02A9304600F028FC4FF4806352
:10074400029300250395049502A9304600F01EFC8F
:100754001B481C4B0360456085608023C3600561B2
:1007640045618561C56100F03FF9F0B9144BA3639D
:100774005C621548154B03601023436000238360BB
:100784008022C260036143618361C36100F02CF97C
:1007940070B90D4B63635C6200220221252000F0D6
:1007A400B3F8252000F0E8F8A5E7FFF751FEDDE7F0
:1007B400FFF74EFEEDE700BF00380140000801409E
:1007C400D4080020580002401809002044000240C8
:1007D40000B583B001904FF6FF73012201A90348CD
:1007E40001F02BF9019803B05DF804FB5C090020CB
:1007F40008B5024801F00CFD08BD00BFA839000887
:1008040008B5024801F004FD08BD00BFC439000862
:1008140008B5034801F0FCFC024B01221A7008BD24
:10082400E0390008CC08002010B504460E4B1A78B5
:100834004FF47A73B3FBF2F30C4A1068B0FBF3F095
:1008440000F0A8F868B90F2C01D901200AE00022B1
:1008540021464FF0FF3000F057F8054B1C60002094
:1008640000E0012010BD00BF0400002000000020B3
:100874000800002008B5074A136843F0100313600A
:10088400032000F02FF80F20FFF7CEFFFFF76CFED8
:10089400002008BD00200240034A1168034B1B7866
:1008A4000B441360704700BFA0090020040000201F
:1008B400014B1868704700BFA009002038B50446F2
:1008C400FFF7F6FF0546B4F1FF3F02D0044B1B7857
:1008D4001C44FFF7EDFF401BA042FAD338BD00BF14
:1008E40004000020074AD36823F4E0631B041B0CB4
:1008F400000200F4E060034343F0BF6343F40033B9
:10090400D360704700ED00E000B5194BDB68C3F31A
:100914000223C3F1070CBCF1040F28BF4FF0040CF1
:1009240003F1040EBEF1060F18D9033B4FF0FF3E4E
:100934000EFA0CFC21EA0C0199400EFA03FE22EA9D
:100944000E020A4300280BDB1201D2B200F1604010
:1009540000F5614080F800235DF804FB0023E5E71F
:1009640000F00F001201D2B2024B1A54F4E700BF98
:1009740000ED00E014ED00E0002807DB00F01F02AA
:10098400400901239340024A42F82030704700BFD7
:1009940000E100E00138B0F1807F0BD24FF0E0239A
:1009A4005861054AF02182F823100020986107223B
:1009B4001A6170470120704700ED00E030B4012453
:1009C400056CAC40C56B6C60046863604368102BB5
:1009D40005D0036899600368DA6030BC7047036827
:1009E4009A600368D960F8E700283AD010B4024648
:1009F40000681D4B984229D81C4B03441C49A1FB99
:100A040003131B099B0013641A4BD363022382F85C
:100A14002130016821F47F5121F03001536894683A
:100A24002343D468234314692343546923439469B7
:100A34002343D46923430B430360002090630123C1
:100A440082F8213082F8200010BC70470A4B03441E
:100A54000749A1FB03131B099B001364074BD363D2
:100A6400D4E70120704700BF07040240F8FFFDBF30
:100A7400CDCCCCCC00000240F8FBFDBF000402400A
:100A840038B5044690F82000012831D0012084F8BC
:100A9400200094F82100012804D0002384F8203099
:100AA400022038BD022084F821000020A0632568BC
:100AB400286820F0010028602046FFF77FFFE36AE2
:100AC4005BB12268136843F00E0313602268136855
:100AD40043F0010313600020E3E72268136823F066
:100AE400040313602268136843F00A031360EDE7FC
:100AF4000220D6E7034690F82120022A06D00422D9
:100B04008263002280F820200120704701680A686F
:100B140022F00E020A6001680A6822F001020A60EB
:100B2400026CC06B012101FA02F2426083F82110C9
:100B3400002083F82000704708B590F82130022B7C
:100B440003D004238363012008BD0268136823F0E3
:100B54000E0313600268136823F001031360036833
:100B64004B4A93424ED9783A934224D0143293425A
:100B740030D0143293422FD0143293422FD01432F7
:100B840093422FD0143293422FD0143293422FD059
:100B940002F5627293422ED0143293422DD0143255
:100BA40093422CD01432934202D04FF4803203E0AB
:100BB4004FF4805200E00122364B5A60012380F842
:100BC4002130002380F82030436B002B5ED09847FF
:100BD4000020B9E71022EFE74FF48072ECE74FF4FE
:100BE4008052E9E74FF48032E6E74FF48012E3E7FE
:100BF4004FF08072E0E70122DEE71022DCE74FF4D9
:100C04008072D9E7244A934224D01432934225D0E7
:100C14001432934224D01432934224D01432934297
:100C240024D01432934224D01432934224D002F5B7
:100C34006272934223D01432934222D014329342EC
:100C440021D01432934202D04FF4803203E04FF4A7
:100C5400805200E00122114B5A60AFE71022FAE7FC
:100C64004FF48072F7E74FF48052F4E74FF4803288
:100C7400F1E74FF48012EEE74FF08072EBE70122C8
:100C8400E9E71022E7E74FF48072E4E700205BE72E
:100C940080000240000402400800024000000240BC
:100CA40038B5C36B1A6804682568016C04238B404B
:100CB400134200F09B8015F0040F00F09780236826
:100CC40013F0200F03D1236823F004032360036887
:100CD4009A4A934246D9783A934224D014329342A2
:100CE40028D01432934227D01432934227D014329E
:100CF400934227D01432934227D01432934227D000
:100D040002F56272934226D01432934225D01432F3
:100D1400934224D01432934202D04FF4802203E051
:100D24004FF4804200E00422854B5A60C36A03B149
:100D3400984738BD4022F7E74FF48062F4E74FF458
:100D44008042F1E74FF48022EEE74FF48002EBE7B4
:100D54004FF08062E8E70422E6E74022E4E74FF43C
:100D64008062E1E7774A934224D01432934225D03B
:100D74001432934224D01432934224D01432934236
:100D840024D01432934224D01432934224D002F556
:100D94006272934223D01432934222D0143293428B
:100DA40021D01432934202D04FF4802203E04FF456
:100DB400804200E00422644B5A60B7E74022FAE71D
:100DC4004FF48062F7E74FF48042F4E74FF4802257
:100DD400F1E74FF48002EEE74FF08062EBE7042284
:100DE400E9E74022E7E74FF48062E4E702238B401F
:100DF400134200F0AB8015F0020F00F0A7802368C7
:100E040013F0200F06D1236823F00A032360012383
:100E140080F821300368494A93424BD9783A934287
:100E240024D0143293422DD0143293422CD0143255
:100E340093422CD0143293422CD0143293422CD0AF
:100E4400143293422CD002F5627293422BD01432A6
:100E540093422AD01432934229D01432934202D0BE
:100E64004FF4003203E04FF4005200E00222344B0E
:100E74005A60002380F82030836A002B3FF459AF76
:100E8400984756E72022F2E74FF40072EFE74FF459
:100E94000052ECE74FF40032E9E74FF40012E6E7C2
:100EA4004FF00072E3E70222E1E72022DFE74FF48C
:100EB4000072DCE7234A934224D01432934225D0B3
:100EC4001432934224D01432934224D014329342E5
:100ED40024D01432934224D01432934224D002F505
:100EE4006272934223D01432934222D0143293423A
:100EF40021D01432934202D04FF4003203E04FF475
:100F0400005200E00222104B5A60B2E72022FAE7B6
:100F14004FF40072F7E74FF40052F4E74FF4003255
:100F2400F1E74FF40012EEE74FF00072EBE7022214
:100F3400E9E72022E7E74FF40072E4E7800002408B
:100F440000040240080002400000024008238B40D5
:100F540013423FF4EEAE15F0080F3FF4EAAE2368F7
:100F640023F00E032360026CC16B012303FA02F227
:100F74004A60836380F82130002380F82030036BBB
:100F8400002B3FF4D6AE9847D3E600BF70B582B0CD
:100F94000024A446B0E0874DAB4210D007D9864D5B
:100FA400AB420CD005F58035AB4208D013E0A5F573
:100FB4008015AB4203D005F57025AB4207D18B6891
:100FC400002B62D0012B5BD04261082403E0A5F51D
:100FD4008015AB42F3D0BEF1FF0F58D80646BEF1E0
:100FE400FF0F56D84FEA8C0233680F25954023EA49
:100FF400050304FA02F2134333604B6813F0805F75
:1010040078D06E4B9A6942F001029A619B6903F0B1
:1010140001030193019B4FEA9C02951C684B53F812
:1010240025600CF00305AD000F23AB4026EA030650
:10103400644B984233D003F58063984200F0988063
:1010440003F58063984200F0958003F5806398422D
:1010540000F0928003F58063984200F08F8003F5DE
:101064008063984219D006231AE0CC68B3E7CC68B1
:101074000434B0E7CC680834ADE7CC680C34AAE794
:1010840002610824A7E70024A5E70424A3E7061DBA
:10109400A5E7ACF108029200A6E7052300E00023CF
:1010A400AB4033430232464D45F822304B6813F4CB
:1010B400803F65D0444A136843EA0E0313604B68CB
:1010C40013F4003F62D0404A536843EA0E0353606E
:1010D4004B6813F4801F5FD03B4A936843EA0E03C6
:1010E40093604B6813F4001F5CD0374AD36843EA1B
:1010F4000E03D3600CF1010C0B6833FA0CF257D0D9
:10110400012202FA0CF203EA020E32EA0303F1D1DD
:101114004B68122B3FF63FAF122B3FF65CAF01A595
:1011240055F823F0C30F00086F1000087910000869
:101134008B100008DB0F0008DB0F0008DB0F000832
:10114400DB0F0008DB0F0008DB0F0008DB0F0008D3
:10115400DB0F0008DB0F0008DB0F0008DB0F0008C3
:10116400DB0F0008DB0F0008731000087F10000875
:10117400012395E7022393E7032391E704238FE7F1
:10118400114A136823EA0E03136098E70E4A536862
:1011940023EA0E0353609BE70B4A936823EA0E038A
:1011A40093609EE7084AD36823EA0E03D360A1E75D
:1011B40002B070BD00002210000031100010024087
:1011C4000000014000080140000401400AB101612F
:1011D400704709040161704782B0084B1B68084AD4
:1011E400A2FB03235B0A00FB03F3019300BF019BF3
:1011F4005A1E0192002BF9D102B070470000002062
:10120400D34D6210002800F0F18170B582B004461D
:10121400036813F0010F2CD0994B5B6803F00C03A7
:10122400042B1DD0964B5B6803F00C03082B12D0E3
:101234006368B3F5803F41D0002B55D103F180435F
:1012440003F504331A6822F480321A601A6822F40F
:1012540080221A6037E08A4B5B6813F4803FE7D042
:10126400874B1B6813F4003F03D06368002B00F026
:10127400BF81236813F0020F75D0814B5B6813F0B4
:101284000C0F5FD07E4B5B6803F00C03082B54D02B
:101294002369002B00F08A807A4B01221A60FFF741
:1012A40007FB0546764B1B6813F0020F75D1FFF759
:1012B400FFFA401B0228F5D903209EE1704A136807
:1012C40043F480331360636843B3FFF7F1FA0546D0
:1012D4006B4B1B6813F4003FCBD1FFF7E9FA401BBB
:1012E4006428F5D9032088E1B3F5A02F09D0644B15
:1012F4001A6822F480321A601A6822F480221A6072
:10130400E1E703F18043A3F53C331A6842F48022F9
:101314001A601A6842F480321A60D4E7FFF7C8FAF8
:101324000546574B1B6813F4003FA2D0FFF7C0FAE1
:10133400401B6428F5D903205FE1514B5B6813F42B
:10134400803FA5D14E4B1B6813F0020F03D02369D5
:10135400012B40F04F814A4A136823F0F803616976
:1013640043EAC1031360236813F0080F33D0A36961
:10137400002B5CD0434B0122C3F88024FFF798FA7A
:1013840005463F4B5B6A13F0020F21D1FFF790FA39
:10139400401B0228F5D903202FE1394A136823F0B2
:1013A400F803616943EAC1031360DCE7354B0022AB
:1013B4001A60FFF77DFA0546314B1B6813F0020FE4
:1013C400D1D0FFF775FA401B0228F5D9032014E1A8
:1013D4000120FFF701FF236813F0040F00F096804B
:1013E400274BDB6913F0805F34D1254BDA6942F077
:1013F4008052DA61DB6903F080530193019B01257C
:10140400214B1B6813F4807F26D0E368012B3DD069
:10141400002B53D103F1804303F504331A6A22F0FD
:1014240001021A621A6A22F004021A6233E0154BAE
:101434000022C3F88024FFF73BFA0546104B5B6A91
:1014440013F0020FC7D0FFF733FA401B0228F5D977
:101454000320D2E00025D3E70B4A136843F48073DA
:101464001360FFF725FA0646074B1B6813F4807FC9
:10147400CBD1FFF71DFA801B6428F5D90320BCE00B
:101484000010024000004242007000405F4A136AAC
:1014940043F001031362E36833B3FFF709FA064626
:1014A4005A4B1B6A13F0020F2FD1FFF701FA801B6E
:1014B40041F288339842F3D903209EE0052B09D0EA
:1014C400524B1A6A22F001021A621A6A22F00402CA
:1014D4001A62E0E74D4B1A6A42F004021A621A6A71
:1014E40042F001021A62D6E7FFF7E2F90646474BDB
:1014F4001B6A13F0020F08D0FFF7DAF9801B41F2E0
:1015040088339842F3D9032077E0E5B9E369002BE7
:1015140072D03E4A526802F00C02082A56D0022BBE
:1015240017D03B4B00221A66FFF7C2F90446374B2B
:101534001B6813F0007F47D0FFF7BAF9001B02289D
:10154400F5D9032059E0314AD36923F08053D3619C
:10155400DCE72F4B00221A66FFF7AAF905462B4B4E
:101564001B6813F0007F06D0FFF7A2F9401B022886
:10157400F5D9032041E0236AB3F5803F1AD023490B
:101584004B6823F47413226A606A024313434B606A
:101594001F4B01221A66FFF78BF904461B4B1B688D
:1015A40013F0007F0ED1FFF783F9001B0228F5D951
:1015B400032022E0154A536823F40033A1680B4347
:1015C4005360DCE7002018E0002016E0012B16D061
:1015D4000E4B5B6803F48031226A914211D103F40B
:1015E4007013626A93420ED1002006E00120704716
:1015F400012002E0012000E0002002B070BD0120C3
:10160400FBE70120F9E70120F7E700BF00100240E3
:101614000000424286B0174B0FCB0DF1180C0CE9B9
:101624000F0040F20123ADF80430134B5B6803F064
:101634000C02082A02D0114806B07047C3F3834253
:1016440018326A4412F8100C13F4803F0DD00A4B80
:101654005B68C3F3404318336B4413F8143C074AE4
:1016640002FB00F0B0FBF3F0E6E7054B03FB00F0F0
:10167400E2E700BFF43900080010024000127A00CB
:1016840000093D00002800F0A08070B50D46044616
:10169400524B1B6803F007038B420BD24F4A13686B
:1016A40023F007030B431360136803F007038B4213
:1016B40040F08D80236813F0020F17D013F0040F4D
:1016C40004D0474A536843F4E0635360236813F03B
:1016D400080F04D0424A536843F460535360404AAD
:1016E400536823F0F003A1680B435360236813F09D
:1016F400010F31D06368012B20D0022B25D0384A4A
:10170400126812F0020F64D035494A6822F00302CD
:1017140013434B60FFF7CCF80646314B5B6803F08C
:101724000C036268B3EB820F16D0FFF7C1F8801B7D
:1017340041F288339842F0D9032045E0284A1268E0
:1017440012F4003FE0D101203EE0254A126812F075
:10175400007FD9D1012037E0204B1B6803F0070339
:10176400AB420AD91D4A136823F007032B431360C5
:10177400136803F00703AB422DD1236813F0040F61
:1017840006D0174A536823F4E063E1680B435360BF
:10179400236813F0080F07D0114A536823F46053E9
:1017A400216943EAC1035360FFF734FF0C4B5B68C4
:1017B400C3F303130B4AD35CD8400B4B18600B4B99
:1017C4001868FFF731F8002070BD01207047012030
:1017D400FAE70120F8E70120F6E700BF0020024005
:1017E400001002409039000800000020080000208A
:1017F400014B1868704700BF0000002008B5FFF7D0
:10180400F7FF044B5B68C3F30223034AD35CD8405D
:1018140008BD00BF00100240A039000808B5FFF75A
:10182400E7FF044B5B68C3F3C223034AD35CD8408D
:1018340008BD00BF00100240A03900080268D36848
:1018440023F0C003D360202380F83D307047026842
:10185400D36823F49073D3600268536923F00103BF
:101864005361036B012B05D0202380F83E30002305
:10187400036370470268D36823F01003D360F3E76F
:1018840090F83D30DBB2212B01D0022070478368F1
:10189400B3F5805F17D0036A5A1C02621A78036892
:1018A4005A60C38C9BB2013B9BB2C3844BB90268A0
:1018B400D36823F08003D3600268D36843F0400305
:1018C400D360002070470369002BE4D1036A1B88AE
:1018D4000268C3F308035360036A02330362E0E758
:1018E40010B504460268136923F44053C1680B43DE
:1018F400136183680269134342691A430168CB6820
:1019040023F4B05323F00C031343CB6002685369F0
:1019140023F4407381690B4353610268134B9A4269
:1019240020D0FFF76BFF024602EB820202EB820239
:1019340063689B00B2FBF3F20D48A0FB0231490936
:10194400642303FB11231B013233A0FB03035B0954
:1019540003F0F00202EB011203F00F0321681344B9
:101964008B6010BDFFF75AFF0246DDE700380140E7
:101974001F85EB512DE9F84305460F461646994657
:10198400DDF820802B681C6837EA04040CBF0124AE
:101994000024B4421FD1B8F1FF3FF3D0B8F1000FD7
:1019A40005D0FEF785FFA0EB09004045EAD92A6877
:1019B400D36823F4D073D3602A68536923F00103F6
:1019C4005361202385F83D3085F83E30002385F8A7
:1019D4003C30032000E00020BDE8F88358B310B584
:1019E400044690F83D300BB3242384F83D3022683C
:1019F400D36823F40053D3602046FFF771FF2268B5
:101A0400136923F4904313612268536923F02A0372
:101A140053612268D36843F40053D36000202064E8
:101A2400202384F83D3084F83E3010BD80F83C30EB
:101A3400FEF756FED8E7012070472DE9F04182B049
:101A44001E4690F83D30DBB2202B54D104460D469F
:101A54009046002953D0002A53D090F83C30012BF3
:101A640051D0012380F83C3000230364212380F803
:101A74003D30FEF71DFF0746A4F82480A4F8268015
:101A8400A368B3F5805F05D04FF00008002384F805
:101A94003C3012E0236913B14FF00008F6E7A84682
:101AA4000025F3E738F8023B2268C3F308035360C8
:101AB400E28C92B2013A92B2E284E38C9BB273B1AB
:101AC40000963B46002280212046FFF753FFE0B9F1
:101AD400002DE7D015F8012B23685A60E8E700963B
:101AE4003B46002240212046FFF744FF78B92023DB
:101AF40084F83D3000E0022002B0BDE8F08101200E
:101B0400FAE70120F8E70220F6E70320F4E70320D0
:101B1400F2E7000038B5134690F83D20D2B2202AEF
:101B240030D1044600292FD0002B2FD090F83C2030
:101B3400012A2DD0012280F83C2001628384C384D1
:101B440000250564212280F83D20426B11489062F3
:101B5400626B1148D062626B10481063626B55630C
:101B640022680432606BFEF78BFF23686FF040023B
:101B74001A6084F83C502268536943F0800353612F
:101B8400284600E0022038BD0120FCE70120FAE7E6
:101B94000220F8E7A51B0008F11B0008FF1B000842
:101BA40008B50346406A1B681B6813F0200F0CD16C
:101BB4000023C3840268536923F0800353610268DD
:101BC400D36843F04003D36008BDFEF711FEFBE782
:101BD40008B50168CA6822F04002CA60202280F871
:101BE4003D20FEF705FE002008BD704708B5406A99
:101BF400FFF7FBFF08BD7047704710B5446A2368C0
:101C04005A6994F83D30DBB2212B10D023685A690D
:101C140002F0400294F83E30DBB2222B11D0236C48
:101C240043F0100323642046FFF7E6FF10BD02F0E3
:101C34008002002AEAD00023E3842046FFF7FEFD59
:101C4400E4E7002AEBD00023E3852046FFF7FFFDFD
:101C5400E5E708B5406A0023C385C384FFF7CCFFDA
:101C640008BD704790F83E30DBB2222B60D1836808
:101C7400B3F5805F46D0826AB3F5805F04D0002B51
:101C84004DD10369002B4AD103685B681370836AE2
:101C940001338362C38D9BB2013B9BB2C385002B8E
:101CA40048D100B583B00268D36823F02003D36021
:101CB4000268D36823F48073D3600268536923F005
:101CC40001035361202380F83E30036B012B2CD198
:101CD400002303630268D36823F01003D36003680E
:101CE4001A6812F0100F06D0002201921A680192AD
:101CF4005B680193019B818DFFF7B3FF002003B064
:101D04005DF804FB0269002AB5D1826A03685B6846
:101D1400C3F308031380836A02338362BAE7036858
:101D24005B6803F07F031370B1E7FEF769FDE5E735
:101D3400022070470020704730B583B00446026823
:101D44001368D068516913F00F0505D113F0200F03
:101D540002D010F0200F19D12DB111F0010119D1C9
:101D640010F4907F16D1216B012975D013F0800FE8
:101D740003D010F0800F40F0D78013F0400F03D051
:101D840010F0400F40F0D48003B030BD2046FFF780
:101D940069FFF9E713F0010F06D010F4807F03D038
:101DA400226C42F00102226413F0040F04D019B132
:101DB400226C42F00202226413F0020F04D019B123
:101DC400226C42F00402226413F0080F07D010F0D2
:101DD400200F00D119B1226C42F008022264226C57
:101DE400002AD1D013F0200F02D010F0200F21D1FF
:101DF40023685B6903F04003226C12F0080F00D1E2
:101E040023B32046FFF723FD23685A6912F0400FDD
:101E140018D05A6922F040025A61A36B73B1464A42
:101E24005A63A06BFEF788FE0028ADD0A06B436B0D
:101E34009847A9E72046FFF715FFD9E72046FFF7A3
:101E4400DBFEA1E72046FFF7D7FE9DE72046FFF71C
:101E5400D3FE0023236497E713F0100F86D010F00D
:101E6400100F83D0002301931368019353680193E7
:101E7400019B536913F0400F32D0A16B0B685B6870
:101E84009BB2002B80D0A08D98427FF67DAFE38576
:101E94008B69202B08D1A18DE38D9BB2C91A89B21D
:101EA4002046FFF7DEFE6FE7D36823F48073D36028
:101EB4002268536923F0010353612268536923F0B4
:101EC40040035361202384F83E30002323632268B7
:101ED400D36823F01003D360A06BFEF70BFEDAE7A0
:101EE400A38DE18D89B25B1A99B2E38D9BB2002B6D
:101EF4003FF44AAF00293FF447AFD36823F490730B
:101F0400D3602268536923F001035361202384F8CA
:101F14003E30002323632268D36823F01003D36088
:101F24002046FFF79EFE2FE72046FFF7A9FC2BE78C
:101F34002046FFF74DFE27E7571C000808B5406A06
:101F4400036B012B02D0FFF756FE08BD818D4908B3
:101F5400FFF787FEF9E708B50346406A1B681B686C
:101F640013F0200F16D10023C3850268D36823F42D
:101F74008073D3600268536923F0010353610268DC
:101F8400536923F040035361202380F83E30036BF0
:101F9400012B05D0036B012B08D0FEF731FC08BDE3
:101FA4000268D36823F01003D360F3E7818DFFF751
:101FB40058FEF4E730B583B0044613468162828547
:101FC40000250564222280F83E20826B144890622A
:101FD400A26B1448D062A26B13481063A26B5563C2
:101FE40020680A46011DA06BFEF74AFD019523688F
:101FF4001A6801925A680192019A84F83C50DA688E
:1020040042F48072DA602268536943F00103536139
:102014002268536943F040035361284603B030BD3E
:102024005B1F0008411F0008FF1B000808B590F85B
:102034003E30DBB2202B0DD171B17AB190F83C3037
:10204400012B0DD0012380F83C3000230363FFF7FC
:10205400B1FF00E0022008BD0120FCE70120FAE7FF
:102064000220F8E70C480D490D4A002302E0D45839
:10207400C4500433C4188C42F9D30A4A0A4C0023CE
:1020840001E013600432A242FBD3FEF70DFB00F023
:1020940015F8FEF711FA70470000002048080020E8
:1020A400143A000848080020DC090020FEE700007C
:1020B400014B1868704700BF0C00002070B50D4E2E
:1020C4000D4D761BB61006D0002455F8043B0134A0
:1020D4009847A642F9D1094E094D01F02FFC761B11
:1020E400B61006D0002455F8043B01349847A642A4
:1020F400F9D170BD0C3A00080C3A0008103A0008F7
:102104000C3A0008830730B548D0541E002A3FD04B
:102114000346CAB201E0013C3AD303F8012B9D0700
:10212400F9D1032C2DD9CDB245EA05250F2C45EA6A
:10213400054536D9A4F1100222F00F0C03F1200E4C
:10214400E6444FEA121C03F1100242E9045542E945
:10215400025510327245F8D10CF1010214F00C0F43
:1021640003EB021204F00F0C13D0ACF1040323F0C0
:1021740003030433134442F8045B9342FBD10CF091
:1021840003042CB1C9B21C4403F8011B9C42FBD1CB
:1021940030BD64461346002CF4D1F9E703461446D7
:1021A400BFE71A46A446E0E730B5044689B00846BE
:1021B4000D4600F035F801210223144A04950692D5
:1021C400A26B04AD0590084401950791A56802939C
:1021D4000390B2B1B5F90C309A0406D46A6E43F494
:1021E400005322F40052AB816A662946204601AAB4
:1021F40000F0BEF8002814BF4FF0FF300A2009B0E9
:1022040030BD204600F0AAF8E4E700BF083A000811
:10221400024B01461868FFF7C7BF00BF0C0000203F
:1022240020F0030110F00300C0F1000051F8043B5A
:1022340000F1040C4FEACC0C6FF000021CBF22FA30
:102244000CF213434FF0010C4CEA0C2C4CEA0C4CEE
:10225400A3EB0C0222EA030212EACC1204BF51F8E7
:10226400043B0430F4D0C2F1000102EA0102B2FAE4
:1022740082F2C2F11F0200EBD2007047014900F064
:10228400EBB900BF453300082DE9F047002482462E
:10229400032504232A48CAE9B845DAF80450CAF8E1
:1022A4003C00DFF8A090DFF8A080284F284E0AF504
:1022B4003B70CAF8E8020822EB602146C5E90044F5
:1022C400C5E904446C66AC60AC6105F15C00FFF7E1
:1022D40019FF204BC5E90759C5E90987EE62DAF809
:1022E40008500822EB602146C5E90044C5E90444CE
:1022F4006C66AC60AC6105F15C00FFF703FF164B44
:10230400C5E90759C5E90987EE62DAF80C50214698
:10231400EB600822C5E90044C5E904446C66AC607E
:10232400AC6105F15C00FFF7EDFE0123C5E9075937
:10233400C5E90A76C5F82480CAF83830BDE8F087C4
:102344008122000895310008B9310008F9310008EC
:10235400193200080900010012000200836B03B166
:102364007047FFF791BF00BF704700BF704700BFC1
:102374009368002B00F0B7802DE9F04FB1F90C30D1
:102384000C4619078046174683B098B225D52369B1
:102394001BB310F002033D682DD04FF0000B5E46D6
:1023A400DFF8B0A2002E00F08B80564533465A4623
:1023B40028BF53464046E169D4F824C0E0470028CA
:1023C40040F38780BB6883441B1A361ABB60002B1A
:1023D400E8D1002003B0BDE8F08F2146404600F06C
:1023E40033FF002840F03381B4F90C303D6898B2D3
:1023F40010F00203D1D110F0010976D14E46002E1F
:102404005AD08205D4F808B040F1B280B3455A4698
:1024140000F2CA8010F4906F00F0C880236821692C
:10242400A3EB010B636903EB430A0AEBDA7A0BF1C2
:1024340001034FEA6A0A33445345524684BF9A461D
:102444005246430540F1E7801146404600F028F922
:10245400002800F0F6805A4621690190FDF7C0FE7D
:10246400A289019B22F4906242F08002A28103EBD4
:102474000B0023613246AAEB0B03B346C4F814A045
:10248400A3602060B24600264946019200F0FEFB9C
:10249400A368019AA3EB0B012368A1601344236092
:1024A400BB68D144A3EB0A03BB60002B91D0B4F901
:1024B4000C0080B2002EA4D1D5E9009608359EE721
:1024C400D5E900B608356DE72146404601F00EF81F
:1024D40078B3B4F90C304FF0FF3043F04003A381DC
:1024E40003B0BDE8F08F002070471E46BA469946F7
:1024F40018461F465EB380B34A46D4E904C3206835
:10250400B24228BF32466045A16803D901EB030BF0
:102514005A4572DC934263DC3A464046E169D4F89A
:1025240024C0E047B0F1000BD3DDB9EB0B09CBD0ED
:102534000120DAF808305F44A3EB0B03A6EB0B068B
:10254400CAF80830002B3FF444AF002ED3D16E6894
:102554002B460835002EFAD01F6832460A21384629
:1025640000F04AFB002869D00130A0EB0709C3E75B
:102574002068236998421BD86369B34218D86FF066
:10258400004CB44528BFB4469CFBF3FC4A4603FB0D
:102594000CF34046E169D4F824C0E047B0F1000AE6
:1025A40097DDA6EB0A067BE7B3463246206869E767
:1025B400B345DA4628BFB2464946524600F066FBA8
:1025C400A3682268A3EB0A035244A3602260002B91
:1025D400E7D12146404600F089FF0028E1D078E7A2
:1025E40039469346019200F051FBA368019A9B1A65
:1025F400A36023681344236097E739465A4600F0E2
:1026040045FB236821465B444046236000F06EFF8F
:1026140000288AD05DE7404600F0B8FB0346002856
:102624007FF425AF4046216900F0C6FF0C22B4F9BF
:102634000C30C8F8002023F080034CE7721C91464C
:102644005BE70C22B4F90C30C8F8002043E74FF0E4
:10265400FF30BFE600FCFF7F2DE9F8434FF000098F
:102664000746884600F53876D6E90154013D10D472
:10267400A389013D012B08D9B4F90E30013304D0EC
:1026840021463846C04749EA00096B1C04F1680436
:10269400EED13668002EE7D14846BDE8F88300BF86
:1026A4002DE9F04F01F10B05162D064683B025D810
:1026B400102900F2B98000F065FB102518224FF0B4
:1026C400020CB54F3A445368A2F108018B4200F062
:1026D400B8805A68D96822F003021A449C683046CC
:1026E400E1608C60516803F1080441F0010151601C
:1026F40000F04AFB204603B0BDE8F08F35F0070533
:1027040000F19280A94200F28F8000F03BFBB5F506
:10271400FC7FC0F094816B0A00F08D80042B00F2E2
:102724006A81AB0903F1390C03F138044FEACC0098
:10273400994F384443680838984206D10CE0002980
:1027440080F22781DB68984206D05A6822F003029F
:10275400511B0F29F3DDA4463C69DFF840E27445C0
:102764007BD0626822F00302531B0F2B00F37681A7
:10277400002BC7E904EE80F26781B2F5007F80F098
:1027840019810121D30852090B4401FA02F2796834
:1027940057F833000A4307EBC3010839A060E1602E
:1027A4007A6047F83340C46001214FEAAC03994092
:1027B400914259D8114206D12CF0030C4900114220
:1027C4000CF1040CFAD007EBCC0948466446D0F867
:1027D4000C80404508D11BE1002B80F22081D8F801
:1027E4000C80404500F01481D8F8042022F0030244
:1027F400531B0F2BF0DD08EB050145F00105C8F86C
:1028040004503046D8E90264F460A66043F0010441
:10281400C7E904114C60C1E902EE48F8023000F047
:10282400B3FA08F1080402E00C23002433602046C4
:1028340003B0BDE8F08F4FF400704FF0400C3F241C
:1028440076E7D3689A4208BF0CF1020C7FF441AFDB
:102854003C69DFF848E1744583D101217A684FEA85
:10286400AC0399409142A5D9BC68636823F003097D
:102874004D4503D8A9EB05030F2B7ADCDFF820B113
:10288400484BDBF800201B6801322B4404EB090A97
:1028940000F02E8103F580530F3323F47F6828F072
:1028A4000F084146304600F061FC411C024600F02E
:1028B400EE80824500F2E9803B4B196841440846AA
:1028C400196000F04881DBF80010019301311BBF4F
:1028D400A2EB0A010918CBF80020196012F0070BCB
:1028E40000F01081CBF108010A44CBF580519044EB
:1028F4000831A1EB0801C1F30B0A5146304600929E
:1029040000F034FC421CDDE9002300F04A81801A07
:1029140000EB0A08196848F001005144BC42BA604F
:102924001960506000F02381B9F10F0F40F221814A
:102934004FF0050E6068A9F10C0C2CF0070C00F0A8
:10294400010040EA0C006060BCF10F0F04EB0C00C6
:10295400C0E901EE00F22D8114465068134B1A6849
:102964008A4238BF1960124B1A688A4238BF19600C
:102974008FE0621943F0010345F0010565603046BC
:10298400BA600834536000F0FFF9204603B0BDE894
:10299400F08FD9681A44A1E63804002040040020CE
:1029A40040080020D4090020A4090020CC090020FC
:1029B400D0090020B2F5206F4FEA52235FD3142BC5
:1029C40000F2B18003F15C01C9005B3378187958D7
:1029D4000838884200F08F804B6823F00303934249
:1029E40002D989688842F7D1C8687A68C4E90210B4
:1029F4008460CC60D8E6142B59D9542B00F29B8008
:102A04002B0B03F16F0C03F16E044FEACC008FE63D
:102A14000134A30700F108007FF4D9AE53E0444623
:102A240042445368D8F80C1043F00103536054F83F
:102A3400083F3046D9608B6000F0A6F9F7E64FEA0C
:102A4400D50C05F108023CE622445368304643F0B5
:102A54000103536000F098F90834E8E6611945F081
:102A64000105656043F00105C7E904113046C1E979
:102A740002EE4D60A35000F087F90834D7E69309BD
:102A840003F13901C9003833A0E7BC425ED0BC6809
:102A9400606820F003084545A8EB050302D80F2B16
:102AA4003FF767AF304600F06FF90024BFE603F14B
:102AB4005C0C03F15B044FEACC0039E659F80839A1
:102AC4004B4540F095801CF0030F0CF1FF3CF5D111
:102AD4007B6823EA01037B60490099423FF6C4AE58
:102AE40011B9C1E6490004341942FBD0A4466AE690
:102AF40003F11008D5E601229B109A407B681A4323
:102B04007A6073E702EB08014942C1F30B0A5146AC
:102B14003046009200F02AFB431CDDE900237FF4D9
:102B2400F6AEDA46F6E6542B26D8130B03F16F0102
:102B3400C9006E334AE7B3F5AA7F26D8EB0B03F13D
:102B4400780C03F177044FEACC00F1E5294B1868BF
:102B540040441860B7E6CAF30B0CBCF1000F7FF4D5
:102B6400B2AEBC68C84448F001006060F6E61446A2
:102B7400F4E60123536095E7B3F5AA7F24D8D30B79
:102B840003F17801C900773320E740F254529342AD
:102B940024D8AB0C03F17D0C03F17C044FEACC0088
:102BA400C6E5ABF1080BD8444FF0000AA8EB0208C5
:102BB400B0E604F108013046009300F0FDFCBC6867
:102BC400009B60681968C9E640F254518B420BD8E7
:102BD400930C03F17D01C9007C33F7E64FF47E705A
:102BE4004FF07F0C7E24A3E54FF47E717E23EDE647
:102BF4007B6871E7A40900205FFA81FC810710D08B
:102C04000346511E2AB90AE09A0718460AD0013928
:102C140005D3184613F8012B6245F5D170470020FF
:102C24007047114603290CD80029F8D00346014403
:102C340001E08B42F3D0184613F8012B6245F8D11A
:102C4400ECE7024610B54CEA0C2444EA044410466E
:102C5400036804326340A3F1013E2EEA030313F038
:102C6400803F04D1043903291046F0D861B10346EA
:102C7400014401E08B4205D0184613F8012B62454C
:102C8400F8D110BD002010BD084610BD88420DD9F2
:102C94008B1883420AD900EB020CBAB1624613F8CE
:102CA40001CD994202F801CDF9D170470F2A0ED80F
:102CB400034602F1FF3C4AB10CF1010C013B8C4488
:102CC40011F8012B614503F8012FF9D1704740EA4F
:102CD40001039B074FD1A2F1100370B501F1200C41
:102CE40023F00F0501F1100E00F11004AC441B0990
:102CF4005EF8105C0EF1100E44F8105C5EF81C5C7B
:102D0400103444F81C5C5EF8185C44F8185C5EF8F7
:102D1400145CE64544F8145CEAD1013312F00C0F5C
:102D240001EB031102F00F0400EB031327D08E46CE
:102D3400043C24F003064FEA940C1E441C1F5EF866
:102D4400045B44F8045FB442F9D10CF1010402F0CD
:102D5400030203EB840301EB840102F1FF3C4AB15B
:102D64000CF1010C013B8C4411F8012B614503F873
:102D7400012FF9D170BD034602F1FF3C9CE72246C6
:102D8400EBE700BF704700BF704700BF2DE9F84F65
:102D94001646002900F09A800C4606F10B05804681
:102DA400FFF7F0FF162D54F8041C5BD810252A46B3
:102DB400AE425CD821F003079742A4F1080962DA15
:102DC400BD4B09EB0700D3F808C0844500F0998097
:102DD400D0F804C02CF0010303445B68DB076AD419
:102DE4002CF0030C07EB0C03934247DACB0710D407
:102DF40054F8083CA9EB030ADAF8043023F0030181
:102E04008C44BC44944580F213817B18934280F235
:102E1400EA8031464046FFF743FC0646E0B154F8E9
:102E2400043CA0F1080223F001034B44934200F058
:102E3400D4803A1F242A00F2F780132A00F2AE80CD
:102E440003462246116819605168596092689A6075
:102E54002146404600F0B0FB4046FFF795FF304660
:102E6400BDE8F88F25F00705002D2A46A0DA0C23CB
:102E74000026C8F800303046BDE8F88F1F46D0E978
:102E84000223D3609A607B1B0F2B24D8D9F804301B
:102E940003F001033B43C9F80430B944D9F80430C2
:102EA40043F00103C9F8043026464046FFF76CFF9F
:102EB4003046BDE8F88FC907ABD454F8083CA9EBF9
:102EC400030ADAF8041021F003019EE71146BDE875
:102ED400F84FFFF7E5BBD9F8042009EB050102F030
:102EE400010243F001032A43C9F804204F444B6014
:102EF4007B68404643F0010308317B6000F05CFBD3
:102F0400D2E7DCF8040020F0030B07EB0B0C05F10F
:102F1400100084454DDAC9073FF57BAF54F8081C0F
:102F2400A9EB010ADAF8041021F003018B44BB4435
:102F340058453FF76AAF5646DAF80C1056F8080FB2
:102F44003A1F242AC160886000F2DB80132A40F211
:102F5400D68021681B2ACAF808106168CAF80C10C8
:102F640000F2E08008340AF11002216811606168FF
:102F74005160A1689160ABEB05020AEB050142F0D8
:102F8400010299604A60DAF80430404603F0010314
:102F94002B43CAF80430FFF7F7FE6CE723681B2ABB
:102FA40003606368436068D804F1080200F1080311
:102FB40048E709EB0502ACEB050C9A604CF0010301
:102FC400536054F8043C404603F001032B4344F897
:102FD400043CFFF7D9FE26464DE750F8043C23F0A5
:102FE40003031F444FE75646DAF80C1056F8080F4F
:102FF4003A1F242AC16088604CD8132A48D9216812
:103004001B2ACAF808106168CAF80C1056D808348C
:103014000AF110021F462368D146136063685360A7
:10302400A368344693602EE72146FFF72FFE0FE78F
:103034005646D0E90213CB60996056F8081FDAF8B7
:103044000C303A1F242ACB6099602DD8132A29D931
:1030540023681B2ACAF808306368CAF80C3042D8BF
:1030640008340AF11003226867461A606268D14680
:103074005A60A26834469A6005E7A368242A8360EC
:10308400E368C36026D004F1100200F11003D9E60E
:103094003246BFE7214630461F46D146FFF7F6FDCC
:1030A4003446F0E63346DEE7214630466746D146ED
:1030B400FFF7ECFD3446E6E638040020A168242A34
:1030C400CAF81010E168CAF8141020D010340AF1BC
:1030D40018029FE7236904F11802036163694361DD
:1030E40000F11803AEE6A368242ACAF81030E36896
:1030F400CAF8143022D010340AF11803B3E7324668
:1031040033E721463046FFF7C1FD174B33E7226909
:103114001834CAF8182054F8042CCAF81C200AF1F0
:10312400200277E7A168242ACAF81010E168CAF8D7
:1031340014100ED010340AF1180216E7236918345B
:10314400CAF8183054F8043CCAF81C300AF12003B9
:1031540089E722691834CAF8182054F8042CCAF8EC
:103164001C200AF1200200E738040020002238B5B0
:10317400064D044608462A60FDF76CFA431C00D04D
:1031840038BD2B68002BFBD0236038BDD809002044
:1031940010B50C46B1F90E1000F094FB002803DBC7
:1031A400236D0344236510BDA38923F48053A381B5
:1031B40010BD00BF2DE9F0410C46B1F90C101F46BB
:1031C400CB05054616460BD421F48051A1813B461C
:1031D40032462846B4F90E10BDE8F04100F01EB89E
:1031E400B4F90E100223002200F0E6FAB4F90C1030
:1031F400EAE700BF10B50C46B1F90E1000F0DCFA96
:10320400A389421C0EBF23F4805343F480532065EA
:10321400A38110BDB1F90E1000F080B838B50C468A
:10322400114600228446074D20462A601A46644609
:10323400FDF702FA431C00D038BD2B68002BFBD0ED
:10324400236038BDD809002038B5334B05461B68C8
:103254000C460BB19A6B12B3B4F90C3018079AB23E
:1032640025D5216900292DD012F0010007D00025B1
:103274006069A5604042A06139B1002038BD95075E
:1032840058BF6069A0600029F7D1120658BF0846EC
:10329400F4D543F040034FF0FF30A38138BD184606
:1032A400FFF75CF8B4F90C3018079AB2D9D4D106F8
:1032B4002AD5520714D4216943F00803A3819AB292
:1032C4000029D1D102F42070B0F5007FCCD0214682
:1032D400284600F087FAB4F90C3021699AB2C3E7A2
:1032E400216B51B104F14002914204D0284600F010
:1032F40063F9B4F90C30002222630022216923F01F
:103304002403C4E90012D7E7092243F040032A60EA
:103314004FF0FF30A38138BD0C000020002238B5E7
:10332400064D044608462A60FDF7B2F9431C00D056
:1033340038BD2B68002BFBD0236038BDD809002092
:1033440070B539B106460C4608B1836B83B3B4F942
:103354000C3013B90025284670BD2146304600F0D4
:1033640033F8E36A054633B13046E16998470028EB
:10337400B8BF4FF0FF35A3891B0620D4216B41B1A0
:1033840004F14003994202D0304600F015F90023BD
:103394002363616C21B1304600F00EF900236364AD
:1033A400FEF7E2FF0023A381FEF7E0FF284670BD8D
:1033B400FEF7D4FFB4F90C30002BCBD0CDE7304668
:1033C400216900F0F9F8D9E7B1F90C20F8B50C46F9
:1033D4001107074643D4636842F40062002BA281BC
:1033E4005BDDA56A002D56D000233E683B6093B296
:1033F40012F4805255D101233846E169A847421C92
:1034040065D0A389A56A5B0705D56368C01A236BD9
:103414000BB1E36BC01A0246E16900233846A847A2
:10342400411C40D13B68002B3DD01D2B01D0162BF5
:1034340054D10022A38923F40063A3812369C4E93E
:103444000032216B3E6031B304F14003994202D053
:10345400384600F0B1F8002318462363F8BD266906
:10346400CEB193B29A0718BF0023256808BF6369D9
:103474002660AD1BA3600CE02B463246D4F824C072
:103484003846E169E047B0F1000CA5EB0C05664451
:1034940016DD002DF0DC0020F8BDE36B002BA0DC72
:1034A400F9E7206DAFE70022B4F90C30626023F431
:1034B40000632269A381DB042260C2D52065C0E7D2
:1034C400A3894FF0FF3043F04003A381F8BD3B686C
:1034D400002B96D01D2B06D0162B04D0A38943F0C5
:1034E4004003A381F8BD00203E60F8BD38B5044612
:1034F4000D4608B1836B1BB1B5F90C0030B938BD6A
:10350400FEF72CFFB5F90C000028F8D02946204618
:10351400BDE83840FFF758BFF8B50C46234F0646C0
:10352400FFF730FCBB68C4F57E615D680F3125F0A0
:1035340003054B1923F47F6323F00F03A3F5805491
:10354400B4F5805F07DB00213046FFF70FFEBB6850
:103554002B44984204D03046FFF716FC0020F8BDF7
:1035640030466142FFF702FE01300DD0104ABB68BD
:103574002D1B45F001055D60136830461B1B13606D
:10358400FFF702FC0120F8BD00213046FFF7EEFDF5
:10359400BA68831A0F2BDEDD43F001035360054B39
:1035A40003491B68C01A0860D5E700BF380400202F
:1035B400A40900204008002000295ED0F8B50C467C
:1035C4000646FFF7DFFB54F8042C784FA4F10805F6
:1035D40022F001016818D7F808C04368844523F035
:1035E400030300F08780D207436034D454F8082CD6
:1035F40007F10804AD1A1144AA68A24268D000EB8E
:10360400030CDCF804E0D5F80CC01EF0010FC2F87E
:103614000CC0CCF8082000F0918041F001036B60ED
:103624000160B1F5007F31D20122CB0849098A40FB
:10363400796801330A437A6057F8331007EBC30201
:10364400083AC5E9021247F83350CD603046BDE868
:10365400F840FFF799BBC2185268D2070ED4194438
:1036640007F108048368A34270D0C268DA609360EB
:1036740041F001036B606950D3E7704741F00103E7
:10368400B1F5007F44F8043C0160CDD3B1F5206F5F
:103694004FEA512347D28B0903F1390003F1380271
:1036A400C300F818FB580838984258D05A6822F0DA
:1036B40003028A4202D99B689842F7D1D868C5E9C7
:1036C400023085603046DD60BDE8F840FFF75CBB42
:1036D400C2185268D20763D40B44D0E90212CA60FC
:1036E400916043F001026A603046EB50BDE8F84057
:1036F400FFF74ABB0B44D10707D454F8082CAD1A82
:103704001344D5E90212CA60916043F001026A6071
:10371400274ABD6012689A4298D8264B30461968E9
:10372400FFF7FAFE92E7142B0AD9542B1FD80B0B80
:1037340003F16F0003F16E02C300B2E7194491E78D
:1037440003F15C0003F15B02C300AAE741F001034B
:10375400C7E90455C5E902446B60695076E7012165
:10376400921001FA02F279680A437A60A7E7B3F586
:10377400AA7F06D8CB0B03F1780003F17702C300CC
:103784008FE740F25452934206D88B0C03F17D002C
:1037940003F17C02C30084E74FF47E737E2280E74A
:1037A40041F001036B60016050E700BF3804002062
:1037B40044080020D409002038B50C4611460022E4
:1037C4008446074D20462A601A466446FCF76AFF81
:1037D400431C00D038BD2B68002BFBD0236038BDC0
:1037E400D80900202DE9F0418B890C46990796B041
:1037F40008D5012204F14303C4E90432236016B05E
:10380400BDE8F081B4F90E100646002927DB6A46AC
:1038140000F06EF8002821DB019D4FF4806805F468
:103824007045A5F50055B5FA85F54FF400676D09A7
:1038340041463046FEF734FFB4F90C30F0B1204A6B
:1038440043F08003F263C4F81480A38120602061F4
:1038540035BB3B43A38116B0BDE8F081A38913F0C7
:10386400800519D04FF04008304641460025FEF748
:1038740017FF2F46B4F90C300028E0D19A05BED4C6
:10388400012123F0030304F1430243F00203C4E9DA
:103894000421A3812260B2E74FF480682F46C7E772
:1038A4003046B4F90E1000F037F810B9B4F90C3002
:1038B400CFE7A38923F0030343F001031BB2C8E756
:1038C4008122000838B50C46114600228446074D73
:1038D40020462A601A466446FCF79EFE431C00D02C
:1038E40038BD2B68002BFBD0236038BDD8090020DD
:1038F40070B50026074D0446084611462E60FCF7B5
:10390400CAFE431C00D070BD2B68002BFBD0236083
:1039140070BD00BFD8090020002238B5064D04460A
:1039240008462A60FCF7BCFE431C00D038BD2B6857
:10393400002BFBD0236038BDD8090020F8B500BFA8
:10394400F8BC08BC9E467047F8B500BFF8BC08BC7C
:043954009E467047D4
:103958002A2A2A2A2A205541525420436F6D6D7510
:103968006E69636174696F6E207573696E6720494B
:10397800646C65204954202B20444D41202A2A2A72
:103988002A2A0D0A000000000000000000000000C4
:1039980001020304060708090000000001020304ED
:1039A800547843706C7443616C6C6261636B207310
:1039B80074617274212121210D0000005278437036
:1039C8006C7443616C6C6261636B207374617274B4
:1039D800212121210D000000757361727431206965
:1039E800646C652069742121210D0000020304051F
:1039F800060708090A0B0C0D0E0F10100000000036
:043A08000A000000B0
:043A0C003903000872
:043A10001103000896
:103A14000024F40001000000100000001000002049
:103A240000000000FC02002064030020CC030020FE
:103A34000000000000000000000000000000000082
:103A44000000000000000000000000000000000072
:103A54000000000000000000000000000000000062
:103A64000000000000000000000000000000000052
:103A74000000000000000000000000000000000042
:103A84000000000000000000000000000000000032
:103A94000000000000000000000000000000000022
:103AA4000000000000000000000000000000000012
:103AB4000000000000000000000000000000000002
:103AC40000000000000000000100000000000000F1
:103AD4000E33CDAB34126DE6ECDE05000B000000B6
:103AE40000000000000000000000000000000000D2
:103AF40000000000000000000000000000000000C2
:103B040000000000000000000000000000000000B1
:103B140000000000000000000000000000000000A1
:103E540038040020380400204004002040040020DE
:103E6400480400204804002050040020500400208E
:103E7400580400205804002060040020600400203E
:103E840068040020680400207004002070040020EE
:103E9400780400207804002080040020800400209E
:103EA400880400208804002090040020900400204E
:103EB4009804002098040020A0040020A0040020FE
:103EC400A8040020A8040020B0040020B0040020AE
:103ED400B8040020B8040020C0040020C00400205E
:103EE400C8040020C8040020D0040020D00400200E
:103EF400D8040020D8040020E0040020E0040020BE
:103F0400E8040020E8040020F0040020F00400206D
:103F1400F8040020F804002000050020000500201B
:103F240008050020080500201005002010050020C9
:103F34001805002018050020200500202005002079
:103F44002805002028050020300500203005002029
:103F540038050020380500204005002040050020D9
:103F64004805002048050020500500205005002089
:103F74005805002058050020600500206005002039
:103F840068050020680500207005002070050020E9
:103F94007805002078050020800500208005002099
:103FA4008805002088050020900500209005002049
:103FB4009805002098050020A0050020A0050020F9
:103FC400A8050020A8050020B0050020B0050020A9
:103FD400B8050020B8050020C0050020C005002059
:103FE400C8050020C8050020D0050020D005002009
:103FF400D8050020D8050020E0050020E0050020B9
:10400400E8050020E8050020F0050020F005002068
:10401400F8050020F8050020000600200006002016
:1040240008060020080600201006002010060020C4
:104034001806002018060020200600202006002074
:104044002806002028060020300600203006002024
:1040540038060020380600204006002040060020D4
:104064004806002048060020500600205006002084
:104074005806002058060020600600206006002034
:1040840068060020680600207006002070060020E4
:104094007806002078060020800600208006002094
:1040A4008806002088060020900600209006002044
:1040B4009806002098060020A0060020A0060020F4
:1040C400A8060020A8060020B0060020B0060020A4
:1040D400B8060020B8060020C0060020C006002054
:1040E400C8060020C8060020D0060020D006002004
:1040F400D8060020D8060020E0060020E0060020B4
:10410400E8060020E8060020F0060020F006002063
:10411400F8060020F8060020000700200007002011
:1041240008070020080700201007002010070020BF
:10413400180700201807002020070020200700206F
:10414400280700202807002030070020300700201F
:1041540038070020380700204007002040070020CF
:10416400480700204807002050070020500700207F
:10417400580700205807002060070020600700202F
:1041840068070020680700207007002070070020DF
:10419400780700207807002080070020800700208F
:1041A400880700208807002090070020900700203F
:1041B4009807002098070020A0070020A0070020EF
:1041C400A8070020A8070020B0070020B00700209F
:1041D400B8070020B8070020C0070020C00700204F
:1041E400C8070020C8070020D0070020D0070020FF
:1041F400D8070020D8070020E0070020E0070020AF
:10420400E8070020E8070020F0070020F00700205E
:10421400F8070020F807002000080020000800200C
:1042240008080020080800201008002010080020BA
:10423400180800201808002020080020200800206A
:10424400280800202808002030080020300800201A
:08425400FFFFFFFF0000020064
:040000050800206966
:00000001FF
